{
  "abi": [
    {
      "inputs": [
        {
          "internalType": "address",
          "name": "_registry",
          "type": "address"
        },
        {
          "internalType": "address",
          "name": "_parameter",
          "type": "address"
        }
      ],
      "stateMutability": "nonpayable",
      "type": "constructor"
    },
    {
      "inputs": [],
      "name": "checker",
      "outputs": [
        {
          "internalType": "bool",
          "name": "canExec",
          "type": "bool"
        },
        {
          "internalType": "bytes",
          "name": "execPayload",
          "type": "bytes"
        }
      ],
      "stateMutability": "view",
      "type": "function"
    },
    {
      "inputs": [],
      "name": "getAllMarkets",
      "outputs": [
        {
          "internalType": "address[]",
          "name": "",
          "type": "address[]"
        }
      ],
      "stateMutability": "view",
      "type": "function"
    },
    {
      "inputs": [
        {
          "internalType": "contract IMarket",
          "name": "_market",
          "type": "address"
        }
      ],
      "name": "getAllUnlockableIds",
      "outputs": [
        {
          "internalType": "uint256[]",
          "name": "_unlockableIds",
          "type": "uint256[]"
        }
      ],
      "stateMutability": "view",
      "type": "function"
    },
    {
      "inputs": [],
      "name": "getFirstUnlockablePoolAndIds",
      "outputs": [
        {
          "internalType": "address",
          "name": "",
          "type": "address"
        },
        {
          "internalType": "uint256[]",
          "name": "",
          "type": "uint256[]"
        }
      ],
      "stateMutability": "view",
      "type": "function"
    },
    {
      "inputs": [],
      "name": "maxGasPrice",
      "outputs": [
        {
          "internalType": "uint256",
          "name": "",
          "type": "uint256"
        }
      ],
      "stateMutability": "view",
      "type": "function"
    },
    {
      "inputs": [
        {
          "internalType": "uint256",
          "name": "_gwei",
          "type": "uint256"
        }
      ],
      "name": "setMaxGasPrice",
      "outputs": [],
      "stateMutability": "nonpayable",
      "type": "function"
    },
    {
      "inputs": [
        {
          "internalType": "address",
          "name": "_targetMarket",
          "type": "address"
        },
        {
          "internalType": "uint256[]",
          "name": "_ids",
          "type": "uint256[]"
        }
      ],
      "name": "unlockBatch",
      "outputs": [],
      "stateMutability": "nonpayable",
      "type": "function"
    }
  ],
  "bytecode": {
    "object": "0x60c06040526406fc23ac0060005534801561001957600080fd5b50604051610cf2380380610cf28339810160408190526100389161006b565b6001600160a01b039182166080521660a05261009e565b80516001600160a01b038116811461006657600080fd5b919050565b6000806040838503121561007e57600080fd5b6100878361004f565b91506100956020840161004f565b90509250929050565b60805160a051610c2f6100c3600039600061048a0152600061028c0152610c2f6000f3fe608060405234801561001057600080fd5b506004361061007d5760003560e01c8063b574ab531161005b578063b574ab53146100c8578063cf5303cf146100de578063d2fa635e146100f4578063d90f1fc41461010757600080fd5b80633de39c1114610082578063a97585771461009e578063b0772d0b146100b3575b600080fd5b61008b60005481565b6040519081526020015b60405180910390f35b6100b16100ac3660046107b8565b610127565b005b6100bb61018b565b6040516100959190610863565b6100d061019a565b6040516100959291906108eb565b6100e66101ae565b604051610095929190610917565b6100b161010236600461096f565b610263565b61011a610115366004610988565b610277565b60405161009591906109ac565b6040516213fcd360eb1b815282906001600160a01b03821690639fe69800906101549085906004016109ac565b600060405180830381600087803b15801561016e57600080fd5b505af1158015610182573d6000803e3d6000fd5b50505050505050565b6060610195610288565b905090565b600060606101a6610310565b915091509091565b600060606000543a1161025f576000806101c6610310565b91509150805160001461022c576040516001945063a975857760e01b906101f390849084906024016108eb565b60408051601f198184030181529190526020810180516001600160e01b03166001600160e01b031990931692909217909152925061025c565b604051806040016040528060148152602001734e6f20556e6c6f636b61626c6520506f6c69637960601b81525092505b50505b9091565b61027181633b9aca006109d5565b60005550565b606061028282610373565b92915050565b60607f00000000000000000000000000000000000000000000000000000000000000006001600160a01b031663b0772d0b6040518163ffffffff1660e01b8152600401600060405180830381865afa1580156102e8573d6000803e3d6000fd5b505050506040513d6000823e601f3d908101601f1916820160405261019591908101906109f7565b60006060600061031e610288565b90506000606060005b83518110156103685783818151811061034257610342610a91565b6020026020010151925061035583610373565b9150815160000361036857600101610327565b509094909350915050565b606061037e826106cb565b80156103fc57506000826001600160a01b031663e0e081d76040518163ffffffff1660e01b8152600401602060405180830381865afa1580156103c5573d6000803e3d6000fd5b505050506040513d601f19601f820116820180604052508101906103e99190610abd565b60018111156103fa576103fa610aa7565b145b156106c6576000826001600160a01b0316639d4c6d916040518163ffffffff1660e01b8152600401602060405180830381865afa158015610441573d6000803e3d6000fd5b505050506040513d601f19601f820116820180604052508101906104659190610ade565b6040516334a92e4560e01b81526001600160a01b0385811660048301529192506000917f000000000000000000000000000000000000000000000000000000000000000016906334a92e4590602401602060405180830381865afa1580156104d1573d6000803e3d6000fd5b505050506040513d601f19601f820116820180604052508101906104f59190610ade565b905060008267ffffffffffffffff8111156105125761051261074d565b60405190808252806020026020018201604052801561053b578160200160208202803683370190505b5090506000805b8481101561061f576040516359fb49f960e01b8152600481018290526000906001600160a01b038916906359fb49f99060240161010060405180830381865afa158015610593573d6000803e3d6000fd5b505050506040513d601f19601f820116820180604052508101906105b79190610b1d565b9050600085826040015165ffffffffffff166105d39190610bcd565b90508160e0015180156105e65750428111155b1561061557828585815181106105fe576105fe610a91565b602090810291909101015261061284610be0565b93505b5050600101610542565b5060008167ffffffffffffffff81111561063b5761063b61074d565b604051908082528060200260200182016040528015610664578160200160208202803683370190505b50905060005b828110156106bb5783818151811061068457610684610a91565b602002602001015182828151811061069e5761069e610a91565b6020908102919091010152806106b381610be0565b91505061066a565b509695505050505050565b919050565b6000816001600160a01b031663e0e081d76040518163ffffffff1660e01b8152600401602060405180830381865afa925050508015610727575060408051601f3d908101601f1916820190925261072491810190610abd565b60015b156106c65750600192915050565b6001600160a01b038116811461074a57600080fd5b50565b634e487b7160e01b600052604160045260246000fd5b604051601f8201601f1916810167ffffffffffffffff8111828210171561078c5761078c61074d565b604052919050565b600067ffffffffffffffff8211156107ae576107ae61074d565b5060051b60200190565b600080604083850312156107cb57600080fd5b82356107d681610735565b915060208381013567ffffffffffffffff8111156107f357600080fd5b8401601f8101861361080457600080fd5b803561081761081282610794565b610763565b81815260059190911b8201830190838101908883111561083657600080fd5b928401925b828410156108545783358252928401929084019061083b565b80955050505050509250929050565b6020808252825182820181905260009190848201906040850190845b818110156108a45783516001600160a01b03168352928401929184019160010161087f565b50909695505050505050565b600081518084526020808501945080840160005b838110156108e0578151875295820195908201906001016108c4565b509495945050505050565b6001600160a01b038316815260406020820181905260009061090f908301846108b0565b949350505050565b821515815260006020604081840152835180604085015260005b8181101561094d57858101830151858201606001528201610931565b506000606082860101526060601f19601f830116850101925050509392505050565b60006020828403121561098157600080fd5b5035919050565b60006020828403121561099a57600080fd5b81356109a581610735565b9392505050565b6020815260006109a560208301846108b0565b634e487b7160e01b600052601160045260246000fd5b8082028115828204841417610282576102826109bf565b80516106c681610735565b60006020808385031215610a0a57600080fd5b825167ffffffffffffffff811115610a2157600080fd5b8301601f81018513610a3257600080fd5b8051610a4061081282610794565b81815260059190911b82018301908381019087831115610a5f57600080fd5b928401925b82841015610a86578351610a7781610735565b82529284019290840190610a64565b979650505050505050565b634e487b7160e01b600052603260045260246000fd5b634e487b7160e01b600052602160045260246000fd5b600060208284031215610acf57600080fd5b8151600281106109a557600080fd5b600060208284031215610af057600080fd5b5051919050565b805165ffffffffffff811681146106c657600080fd5b805180151581146106c657600080fd5b6000610100808385031215610b3157600080fd5b6040519081019067ffffffffffffffff82118183101715610b5457610b5461074d565b8160405283518152610b6860208501610af7565b6020820152610b7960408501610af7565b60408201526060840151606082015260808401516080820152610b9e60a085016109ec565b60a0820152610baf60c085016109ec565b60c0820152610bc060e08501610b0d565b60e0820152949350505050565b80820180821115610282576102826109bf565b600060018201610bf257610bf26109bf565b506001019056fea264697066735822122060303f1fd86b4ef7aaf45dd58c51734d4c9899d97e460054819e9d9d55f85c3164736f6c63430008110033",
    "linkReferences": {}
  },
  "methodIdentifiers": {
    "checker()": "cf5303cf",
    "getAllMarkets()": "b0772d0b",
    "getAllUnlockableIds(address)": "d90f1fc4",
    "getFirstUnlockablePoolAndIds()": "b574ab53",
    "maxGasPrice()": "3de39c11",
    "setMaxGasPrice(uint256)": "d2fa635e",
    "unlockBatch(address,uint256[])": "a9758577"
  },
  "id": 0
}